:020000040000FA
:0400000015EF00F008
:06000800748208ED08F00F
:100018007480E0CF0AF0F29EF28E0AC0E0FF74907E
:06002800100020EF0BF0B8
:10060000000D0A50726F6772616D207374617274AD
:100610000A0D000D4B65792076616C75653A2030C6
:10062000782530327820256300004FC0D9FF50C0B4
:10063000DAFFDECFF6FFDDCFF7FF0800F550250A21
:10064000D8A425EF03F027EF03F0F4EF04F04FC038
:10065000D9FF50C0DAFFDE2A000EDD22000E6B6EDD
:10066000000E6A6E6AC06EF06BC06FF06C686D68E9
:10067000000E606E000E5F6E84EF03F06E804FC060
:10068000D9FF50C0DAFFDE2A000EDD2284EF03F02E
:100690006E823FEF03F06E843FEF03F06E863FEF14
:1006A00003F06E883FEF03F0000E606E010E5F6E88
:1006B00084EF03F04FC0D9FF50C0DAFFDECFF6FF62
:1006C000DDCFF7FF0800F550536E546A5450000A0E
:1006D000D8B46DEF03F054EF03F05350200AD8B4B0
:1006E0004EEF03F0030AD8B451EF03F0080AD8B470
:1006F0004BEF03F0060AD8B43EEF03F01D0AD8B45E
:1007000048EF03F054EF03F05F506010D8B48BEF64
:1007100003F08DEF03F05AEF03F06EA092EF03F0B9
:1007200094EF03F095EF03F06E924FC0D9FF50C0E5
:10073000DAFFDECFF6FFDDCFF7FF0800F5502A0A1B
:10074000D8A4A5EF03F0A7EF03F0D0EF03F04FC05C
:10075000D9FF50C0DAFFDE2A000EDD2251C0D9FFDA
:1007600052C0DAFFDFCF53F0020EDE26DFCF54F0A7
:10077000000EDD2253C0D9FF54C0DAFFDECF6AF08D
:10078000DDCF6BF06BBEC9EF03F0C7EF03F013EFE3
:1007900004F06E806A6C6B1ED8B06B2A13EF04F005
:1007A0004FC0D9FF50C0DAFFDECF12F0DDCF13F01B
:1007B0007AEC06F012C06AF013C06BF0E7EF03F0BA
:1007C0004FC0D9FF50C0DAFFDE2A000EDD22D00E66
:1007D000536EFF0E546E4FC0D9FF50C0DAFFDECF0C
:1007E000F6FFDDCFF7FF0800F550556E566A5350FF
:1007F00055265450562256500AE10A0E555CD8A090
:1008000004EF04F007EF04F0010E08EF04F0000E0F
:10081000616E626A61506210D8A411EF04F013EFA8
:1008200004F0E0EF03F04FC0D9FF50C0DAFFDECF95
:10083000F6FFDDCFF7FF0800F550630AD8A423EFD9
:1008400004F025EF04F04CEF04F04FC0D9FF50C086
:10085000DAFFDE2A000EDD2251C0D9FF52C0DAFFD6
:10086000DFCF53F0020EDE26DFCF54F0000EDD2284
:1008700053C0D9FF54C0DAFFDF50636E4DC026F07D
:100880004EC027F063C028F061EC0AF026C04DF09E
:1008900027C04EF00FEF05F04FC0D9FF50C0DAFF70
:1008A000DECFF6FFDDCFF7FF0800F550780AD8B4A9
:1008B0005CEF04F05EEF04F070EF04F04FC0D9FF7E
:1008C00050C0DAFFDECFF6FFDDCFF7FF0800F550AE
:1008D000580AD8A46EEF04F070EF04F0BEEF04F0F5
:1008E0004FC0D9FF50C0DAFFDECFF6FFDDCFF7FFF4
:1008F0000800F5CF63F04FC0D9FF50C0DAFFDE2A01
:10090000000EDD2251C0D9FF52C0DAFFDFCF53F015
:10091000020EDE26DFCF54F0000EDD2253C0D9FFD9
:1009200054C0DAFFDECF55F0DDCF56F055C057F09A
:1009300056C058F0596A5A6A5B6A5C6A5D6A5E6AB8
:100940004DC026F04EC027F057C028F058C029F0FF
:1009500059C02AF05AC02BF05BC02CF05CC02DF0BF
:100960005DC02EF05EC02FF063C030F010EC05F0DB
:1009700026C04DF027C04EF00FEF05F04FC0D9FF55
:1009800050C0DAFFDECFF6FFDDCFF7FF0800F550ED
:10099000250AD8A4CEEF04F0D0EF04F0E7EF04F07E
:1009A0004FC0D9FF50C0DAFFDE2A000EDD22000E54
:1009B0000C6E250E0B6E4DC00DF04EC00EF042ECCD
:1009C00007F0000E4E6E010E4D6E0FEF05F04FC09A
:1009D000D9FF50C0DAFFDE2A000EDD22000E4E6E77
:1009E000000E4D6E0FEF05F04FC0D9FF50C0DAFF7B
:1009F000DECFF6FFDDCFF7FF0800F5500B6E0C6A77
:100A00004DC00DF04EC00EF042EC07F04FC0D9FFC4
:100A100050C0DAFFDE2A000EDD22E1EF04F0120002
:100A20006DBE15EF05F017EF05F018EF05F06E92AB
:100A30006DBE25EF05F06D5006E16C04D8B023EFD4
:100A400005F025EF05F02BEF05F0000E3E6E010ED0
:100A50003D6E2FEF05F06CC03DF06DC03EF06AC0FA
:100A60003FF06BC040F06EA838EF05F03AEF05F0AC
:100A70003EEF05F0FE0E3F26FF0E402228C041F05B
:100A800029C042F02AC043F02BC044F02CC045F0EE
:100A90002DC046F02EC047F02FC048F0000E4A6E21
:100AA0001F0E496E000E0001A16F0AEF06F0490605
:100AB000D8A04A060F0E41144B6E4C6A4CBE6AEF2A
:100AC00005F04C5009E10A0E4B5CD8A06AEF05F026
:100AD0006CEF05F074EF05F0570E4B244B6E000ED3
:100AE0004C204C6E7AEF05F0300E4B244B6E000E0E
:100AF0004C204C6EBF0E316EFF0E326E3050336E96
:100B0000346A315033263250342234500AE11A0EFE
:100B1000335CD8A08EEF05F091EF05F0010E92EF57
:100B200005F0000E396E3A6A39503A10D8B49BEF8E
:100B300005F09DEF05F0CDEF05F09F0E316EFF0E35
:100B4000326E200E4B10336E000E4C10346E31504E
:100B500033263250342234500AE11A0E335CD8A0C6
:100B6000B4EF05F0B7EF05F0010EB8EF05F0000E99
:100B70003B6E3C6A3B503C10D8B4C1EF05F0C3EF6C
:100B800005F0CDEF05F04BC011F04CC012F032EC87
:100B90000AF011C04BF012C04CF0820E4924D96EFD
:100BA000000E4A20DA6E4BC0DFFF3D06D8A03E069D
:100BB0003F06D8A0400641C031F042C032F043C0E9
:100BC00033F044C034F045C035F046C036F047C07D
:100BD00037F048C038F0050EF7EF05F0D8903832FE
:100BE0003732363235323432333232323132E82E25
:100BF000EEEF05F031C041F032C042F033C043F0B7
:100C000034C044F035C045F036C046F037C047F038
:100C100038C048F04ABE16EF06F04A5009E1020E0D
:100C2000495CD8A016EF06F018EF06F048EF06F082
:100C300041504210431044104510461047104810D0
:100C4000D8A425EF06F027EF06F057EF05F03EBEDB
:100C500034EF06F03E5006E13D04D8B032EF06F026
:100C600034EF06F057EF05F040BE3FEF06F040507E
:100C700008E13F04D8A03FEF06F041EF06F048EF4F
:100C800006F06EB246EF06F048EF06F057EF05F0BB
:100C90006EA84DEF06F04FEF06F065EF06F049063F
:100CA000D8A04A06820E4924D96E000E4A20DA6E78
:100CB00030C0DFFF4906D8A04A06820E4924D96E0B
:100CC000000E4A20DA6E300EDF6E26C01BF027C001
:100CD0001CF0820E49241D6E000E4A201E6E3FC07D
:100CE0001FF040C020F0A7EC07F01BC026F01CC08E
:100CF00027F01200000E206E000E1F6E000E196EFF
:100D0000000E186E86EF06F0124A132A010E1E6EB0
:100D100012C0F6FF13C0F7FF0800F550200AD8B440
:100D200094EF06F096EF06F0B3EF06F0F70E146EB0
:100D3000FF0E156E12C0F6FF13C0F7FF0800F55046
:100D4000166E176A1450162615501722175009E10F
:100D5000050E165CD8A0AFEF06F0B1EF06F0B3EFCA
:100D600006F0000E1E6E1EC01AF01B6A1A501B10F1
:100D7000D8A4BDEF06F0BFEF06F084EF06F0C9EF90
:100D800006F0000E196E010E186E124A132AFEEFBD
:100D900006F012C0F6FF13C0F7FF0800F550146EFE
:100DA000156A1550000AD8B4D8EF06F0FEEF06F029
:100DB00014502B0AD8B4C5EF06F0060AD8B4C1EF18
:100DC00006F0FEEF06F01FC00BF020C00CF0000E86
:100DD0000E6E0A0E0D6EDEEC0BF012C0F6FF13C0A5
:100DE000F7FF0800F5500B5E000E0C5A300E0B2476
:100DF0001F6E000E0C20206EC5EF06F0D00E146E94
:100E0000FF0E156E12C0F6FF13C0F7FF0800F55075
:100E1000166E176A145016261550172217500AE13D
:100E20000A0E165CD8A017EF07F01AEF07F0010EB4
:100E30001BEF07F0000E1C6E1D6A1C501D10D8A47D
:100E400024EF07F026EF07F0E3EF06F01850191033
:100E5000D8A42DEF07F02FEF07F03DEF07F01FC0EC
:100E600014F020C015F0141E151E144A152A14C0C3
:100E700012F015C013F041EF07F01FC012F020C0B0
:100E800013F012000D500E10D8B449EF07F04BEFDD
:100E900007F054EF07F00D500E10D8A452EF07F0F2
:100EA00054EF07F059EF07F00B500FEC0CF0A6EFE2
:100EB00007F020EE04F00D50D9260E50DA22DE5055
:100EC000DE10D8B466EF07F068EF07F083EF07F0A5
:100ED00020EE04F00D50D9260E50DA2210EE02F06A
:100EE0000D50E1260E50E222DE50E65CE650800A0C
:100EF000136EDE50800A1358D8B081EF07F083EFED
:100F000007F0A6EF07F020EE02F00D50D9260E50A4
:100F1000DA22DECF0FF0DDCF10F00DC0D9FF0EC00A
:100F2000DAFFDECF11F0DDCF12F00F501124D96EB1
:100F300010501220DA6E0BC0DFFF20EE02F00D50D1
:100F4000D9260E50DA22DE2A000EDD2212006EA013
:100F5000ACEF07F0AEEF07F0B8EF07F01DC014F0EC
:100F60001EC015F01BC016F01CC017F0E0EC0AF014
:100F700020BEBDEF07F0BFEF07F0C5EF07F01FC0C1
:100F800024F020C025F0C9EF07F0000E256E000EFA
:100F9000246E000E236E000E226EDBEF07F0000EB3
:100FA0000C6E200E0B6E1BC00DF01CC00EF042EC40
:100FB00007F0224A232A2450225C2350800A216E03
:100FC0002550800A2158D8A0E8EF07F0EAEF07F093
:100FD000CFEF07F06EB0EFEF07F0F1EF07F0FBEFA8
:100FE00007F01DC014F01EC015F01BC016F01CC089
:100FF00017F0E0EC0AF01DC00BF01EC00CF0ABECDB
:101000000BF024500B241B6E25500C201C6E12007C
:101010000600D9CF08F0DACF09F0F29EF2B213EF52
:1010200008F015EF08F023EF08F0F0B01AEF08F021
:101030001CEF08F023EF08F0F0A221EF08F023EFF7
:1010400008F062EF08F0F2A228EF08F02AEF08F0AB
:1010500038EF08F0720E016E000E026E710E036E14
:10106000000E046E81501BEC09F0010E706EF292BE
:10107000F0A03DEF08F03FEF08F04DEF08F0720EE2
:10108000016E000E026E710E036E000E046E815032
:10109000C2EC08F0010E706EF090F0A252EF08F072
:1010A00054EF08F062EF08F0720E016E000E026E4F
:1010B000710E036E000E046E815069EC08F0010E93
:1010C000706EF092F28E09C0DAFF08C0D9FF7492F8
:1010D0001100076EA4EF08F003C0D9FF04C0DAFFC7
:1010E000330EDF6E01C0D9FF02C0DAFF030EDF6EE0
:1010F000C1EF08F003C0D9FF04C0DAFF390EDF6E7C
:1011000001C0D9FF02C0DAFF090EDF6EC1EF08F09F
:1011100003C0D9FF04C0DAFF230EDF6E01C0D9FF80
:1011200002C0DAFF0B0EDF6EC1EF08F003C0D9FF7B
:1011300004C0DAFF360EDF6E01C0D9FF02C0DAFF4D
:10114000060EDF6EC1EF08F00750056E066A065006
:10115000000AD8B4AEEF08F0C1EF08F005500C0A51
:10116000D8B496EF08F0180AD8B47AEF08F0300A2D
:10117000D8B488EF08F0600AD8B46CEF08F0C1EF7B
:1011800008F01200076EFDEF08F003C0D9FF04C09D
:10119000DAFF320EDF6E01C0D9FF02C0DAFF020EA5
:1011A000DF6E1AEF09F003C0D9FF04C0DAFF380E72
:1011B000DF6E01C0D9FF02C0DAFF080EDF6E1AEF42
:1011C00009F003C0D9FF04C0DAFF2A0EDF6E01C0A8
:1011D000D9FF02C0DAFF0A0EDF6E1AEF09F003C072
:1011E000D9FF04C0DAFF350EDF6E01C0D9FF02C09F
:1011F000DAFF050EDF6E1AEF09F00750056E066A7A
:101200000650000AD8B407EF09F01AEF09F00550AC
:101210000A0AD8B4EFEF08F0180AD8B4D3EF08F0F0
:10122000330AD8B4E1EF08F0630AD8B4C5EF08F088
:101230001AEF09F01200076E56EF09F003C0D9FF4C
:1012400004C0DAFF310EDF6E01C0D9FF02C0DAFF41
:10125000010EDF6E73EF09F003C0D9FF04C0DAFF9F
:10126000370EDF6E01C0D9FF02C0DAFF070EDF6E56
:1012700073EF09F003C0D9FF04C0DAFF2A0EDF6E56
:1012800001C0D9FF02C0DAFF0A0EDF6E73EF09F06A
:1012900003C0D9FF04C0DAFF340EDF6E01C0D9FFEE
:1012A00002C0DAFF040EDF6E73EF09F00750056E1F
:1012B000066A0650000AD8B460EF09F073EF09F02F
:1012C0000550090AD8B448EF09F0180AD8B42CEF31
:1012D00009F0300AD8B43AEF09F0600AD8B41EEF2A
:1012E00009F073EF09F01200D39E700ED312030EB3
:1012F000D312D3A47EEF09F080EF09F079EF09F063
:10130000070E936E010E8A6E000E0C6E330E0B6E7E
:10131000000E0E6E000E0D6E000E106E010E0F6EA2
:10132000000E126E000E116E90EC0BF0F18CF18A33
:10133000F188F08CF08EF288F086F088F28EF28CD4
:10134000150E0001D06F4B0ECF6FBE0EE82EFED7EC
:10135000CF2FFCD7D02FFAD700F0010E0C6E060E5F
:101360000D6EC5EC09F0F1EC0BF07050D8B4BBEF8A
:1013700009F0BDEF09F0B3EF09F0C6EC0BF0000E79
:10138000706EB3EF09F015EF00F0000E106EE2EF93
:1013900009F010500C240E6E000E0D200F6E0EC0C2
:1013A000F6FF0FC0F7FFF86A050EF76403D00800D8
:1013B000F55005D0F6CFE1FFF7CFE2FFE75001ECA3
:1013C0000CF0102A10500C240E6E000E0D200F6E23
:1013D0000EC0F6FF0FC0F7FFF86A050EF76403D0E2
:1013E0000800F55005D0F6CFE1FFF7CFE2FFE75058
:1013F0000009D8A4FEEF09F000EF0AF0C9EF09F0E8
:10140000120066C0BBF067C0BCF0000E0001816F27
:10141000000E806F1FEF0AF064C04DF065C04EF003
:10142000BB0E4F6E000E506E68C051F069C052F096
:1014300015EC03F04D50000180274E508123BBC0B6
:10144000F6FFBCC0F7FF0800F5500009D8A42BEF49
:101450000AF02DEF0AF00CEF0AF080C064F081C0B2
:1014600065F012009F0E136EFF0E146E11C015F082
:1014700012C016F0135015261450162216500AE109
:101480001A0E155CD8A047EF0AF04AEF0AF0010ED9
:101490004BEF0AF0000E176E186A17501810D8B4E8
:1014A00054EF0AF056EF0AF05CEF0AF05F0E1114E9
:1014B000116E126A60EF0AF011C011F012C012F042
:1014C00012006A506B10D8A468EF0AF06AEF0AF0B5
:1014D00070EF0AF06AC029F06BC02AF076EF0AF0CC
:1014E000FF0E6A24296EFF0E6B202A6E28C082F040
:1014F000000E0001836F26C01BF027C01CF0820E77
:101500001D6E000E1E6E29C01FF02AC020F0A7EC31
:1015100007F01BC026F01CC027F01200C10E00010E
:10152000C76F000EC86FBDC0C9F0BEC0CAF0000EC4
:10153000CC6F000ECB6F000ECE6F000ECD6FC90EBC
:10154000646E000E656EBFC066F0C0C067F0C70E67
:10155000686E000E696E01EC0AF00001CB51BD25EA
:10156000D96ECC51BE21DA6E000EDF6E1200010E74
:10157000116E200E0B180C10D8B4C1EF0AF0C3EF97
:101580000AF0DCEF0AF0F70E0D6EFF0E0E6E0BC0C8
:101590000FF00CC010F00D500F260E5010221050FE
:1015A00009E1050E0F5CD8A0D8EF0AF0DAEF0AF0D7
:1015B000DCEF0AF0000E116E11C00BF00C6A120085
:1015C000000E1A6E000E196EF1EF0AF018C00BF043
:1015D0000C6A16C00DF017C00EF042EC07F0194A65
:1015E0001A2A19501424D96E1A501520DA6EDF50B9
:1015F000186E1850D8A4FFEF0AF001EF0BF0E6EFD9
:101600000AF012009F0E0D6EFF0E0E6E200E0B10D4
:101610000F6E000E0C10106E0D500F260E50102283
:1016200010500AE11A0E0F5CD8A019EF0BF01CEF56
:101630000BF0010E1DEF0BF0000E0B6E0C6A12008A
:10164000200EF66E180EF76E000EF86E0900F5CF3C
:1016500073F000EE80F03B0EEE6AE806FDE100EE6E
:101660006AF0090EEE6AE806FDE174907492000ECD
:10167000F86E000174EF09F09F0E0D6EFF0E0E6EF6
:101680000BC00FF00CC010F00D500F260E501022A2
:1016900010500AE11A0E0F5CD8A051EF0BF054EF76
:1016A0000BF0010E55EF0BF0000E0B6E0C6A1200E2
:1016B000BF0E0D6EFF0E0E6E0BC00FF00CC010F0C3
:1016C0000D500F260E50102210500AE11A0E0F5C1A
:1016D000D8A06DEF0BF070EF0BF0010E71EF0BF077
:1016E000000E0B6E0C6A1200D00E0D6EFF0E0E6E09
:1016F0000BC00FF00CC010F00D500F260E50102232
:1017000010500AE10A0E0F5CD8A089EF0BF08CEFA5
:101710000BF0010E8DEF0BF0000E0B6E0C6A120039
:10172000948E948C0C50B06E0BC0AFFFAB88AB8E18
:1017300011B002D0B89601D0B8860DB002D0AC98E6
:1017400001D0AC880FB002D0AC9401D0AC84AC8A8C
:101750009F8A9D8A12000BC00DF00CC00EF0B3EFF3
:101760000BF00B4A0C2A0BC0D9FF0CC0DAFFDF507C
:10177000D8A4BDEF0BF0BFEF0BF0B1EF0BF00D50A5
:101780000B5C0B6E0E500C580C6E1200A20E00017A
:10179000BD6F000EBE6F130EBF6F060EC06F72C01E
:1017A000C1F0C26B71C0C3F0C46B8EEC0AF0A20E24
:1017B0000C6E000E0D6EC5EC09F012000B500D0200
:1017C000F3CF0FF0F4CF10F00B500E02F3501026B1
:1017D0000C500D02F35010260FC00BF010C00CF08F
:1017E000120073507324736E7F0E7364FAEF0BF064
:1017F000FCEF0BF0FEEF0BF0080E736E73C08AFF68
:1018000012000B6E05EF0CF000F0ACA20AEF0CF02A
:101810000CEF0CF004EF0CF00BC0ADFF1200120047
:0118200008BF
:020000040020DA
:08000000FFFFFFFFFFFFFFFF00
:020000040030CA
:0E000000FF08191EFF8181FF0FC00FE00F40A7
:00000001FF
